:100000008C28FF3FFF3FFF3F03138312710DF80D54
:10001000F90D7408F8027508031C750FF902F00D4C
:10002000F10D0F30FC00710DF80DF90D7408701C06
:100030001F28F8027508031C750FF9022428F80719
:1000400075080318750FF907F00DF10DFC0B132857
:10005000701830287408F80775080318750FF90729
:100060000000080003138312FD01F901F801710873
:1000700070040319003471087506FA00FA1BFD09B3
:10008000FB01F51F4828F409F509F40A0319F50ADC
:10009000F11F4F28F009F109F00A0319F10A71085C
:1000A0007504FA00FA1B642804207B187728FD1FCA
:1000B0000034F009F109F00A0319F10AF809F90905
:1000C000F80A0319F90A0034F51F7328F11B6F2889
:1000D0007108F9007008F800F101F0015728F101EA
:1000E000F001F00A0034F109F009FB0A5428F80A7B
:1000F0000319F90A74087802031D57287508790254
:10010000031D5728F901F801F00A0319F10AF11F3C
:1001100057280000FF34080003138312A001A10137
:10012000A201A30183168601831206108610061110
:100130008611061286120613861301300605A200E8
:10014000A3010030A305003086180130F40001300F
:10015000F4007408F000F10174080319B428F00DDC
:10016000F10D7010FF3FAD280030A3007008A2070A
:1001700071080318013FA307003006190130AC00D5
:10018000003086190130F4000130F4007408F000EA
:10019000F10174080319D128F00DF10D7010FF3F23
:1001A000CA282C08F0070318F10A7008A207710882
:1001B0000318013FA30780302306F000803070024F
:1001C000031DE42800302202031C3F290130F40003
:1001D0002008F0002108F10074080319F428F00D3C
:1001E000F10D7010FF3FED287008243FAC00023085
:1001F000F4000030F5002208F0002308F10032205E
:100200007808F0007908F1002C088400700880005C
:100210007108840A80000230F4000030F5002208E2
:10022000F0002308F10032207008AC007108AD0026
:100230000130F4002008F0002108F10074080319CF
:100240002629F00DF10D7010FF3F1F297008243F83
:1002500084000008F000840A0008F1000230F40075
:100260000030F500322070082C02A2007108031C37
:10027000013F2D02A300A00A0319A10ADB280030C8
:100280002A1810300606103986060030281820304B
:10029000060620398606003026184030060640390A
:1002A00086060030241880300606803986069D2890
:1002B0005829FF3FFF3FFF3FFF3FFF3FFF3FFF3F0B
:02400E007A3FF7
:00000001FF
