:100000000428FF3FFF3FFF3F03138312A201A30118
:10001000831687018312A00A0319A10A0230A207DE
:100020000318A30A8030F000803021067002031DFF
:100030001B282008093C03181F28A001A1018030BB
:10004000F000803023067002031D28282208093C96
:1000500003182C28A201A3010630FC00FF30FB008E
:10006000FF30FA00FC0B35283C28FB0B38283B28D6
:10007000FA0B3828352832281A30FB00FF30FA00F6
:10008000FB0B43284628FA0B432840284230FA004D
:10009000FA0B4828E03020078700D030220787007D
:1000A0000A285128FF3FFF3FFF3FFF3FFF3FFF3F31
:02400E007A3FF7
:00000001FF
