:10000000B729FF3FFF3FFF3FFF00030E8301AD0015
:100010000408AC000A08AE008A017108B00070083C
:10002000AF0000300B190130F1007108013A031DD7
:10003000F52800302106031D1F2800302006031D6F
:10004000F5282208013FF10000300318013F230783
:10005000F2007108A2007208A30000307206031DAE
:1000600033280A307106031D7928A201A301240850
:10007000013FF10000300318013F2507F20071082D
:10008000A4007208A50000307206031D49283C3008
:100090007106031D7928A401A5012608013FF1007E
:1000A00000300318013F2707F2007108A60072080C
:1000B000A70000307206031D5F283C307106031D47
:1000C0007928A601A7012808013FF1000030031894
:1000D000013F2907F2007108A8007208A90000304A
:1000E0007206031D752818307106031D7928A801B2
:1000F000A901003086180130F1007108013A031D92
:10010000A22800302106031D872801302006031D88
:10011000A2282808013FF10000300318013F2907F9
:10012000F2007108A8007208A90080307206F00081
:1001300080307002031D9E2818307102031CA22813
:10014000A801A901003086180130F1007108013AB8
:10015000031DCB2800302106031DB02802302006E5
:10016000031DCB282608013FF10000300318013F92
:100170002707F2007108A6007208A70080307206F7
:10018000F00080307002031DC7283C307102031C50
:10019000CB28A601A701003086180130F1007108B4
:1001A000013A031DF42800302106031DD92803302D
:1001B0002006031DF4282408013FF1000030031835
:1001C000013F2507F2007108A4007208A5008030E5
:1001D0007206F00080307002031DF0283C3071027E
:1001E000031CF428A401A5010B1100308B18013069
:1001F000F1007108013A031D17292008013FF100A1
:1002000000300318013F2107F2007108A0007208B6
:10021000A10080307206F00080307002031D1229A8
:1002200004307102031C1629A001A1018B103008B3
:10023000F1002F08F0002E088A002C0884002D0EF3
:100240008300FF0E7F0E090003138312710DF80D5A
:10025000F90D7408F8027508031C750FF902F00D0A
:10026000F10D0F30FC00710DF80DF90D7408701CC4
:100270003F29F8027508031C750FF9024429F80795
:1002800075080318750FF907F00DF10DFC0B3329F4
:10029000701850297408F80775080318750FF907C6
:1002A00000000800003003138312AA000030AB00E6
:1002B0000030A0000030A100080003138312FD01EC
:1002C000F901F8017108700403190034710875060A
:1002D000FA00FA1BFD09FB01F51F7329F409F50962
:1002E000F40A0319F50AF11F7A29F009F109F00A55
:1002F0000319F10A71087504FA00FA1B8F292421E9
:100300007B18A229FD1F0034F009F109F00A031936
:10031000F10AF809F909F80A0319F90A0034F51F76
:100320009E29F11B9A297108F9007008F800F10163
:10033000F0018229F101F001F00A0034F109F0091D
:10034000FB0A7F29F80A0319F90A74087802031DC9
:10035000822975087902031D8229F901F801F00A42
:100360000319F10AF11F82290000FF34080052210D
:10037000FF308316860087018801B0308B00803003
:1003800081000A30F4000030F50083122408F000E8
:100390002508F1005D21D030700787000A30F40095
:1003A0000030F5002408F0002508F1005D217808F0
:1003B000F0007908F100E030700787000A30F4009F
:1003C0000030F5002608F0002708F1005D217030AC
:1003D000700787000A30F4000030F5002608F000AE
:1003E0002708F1005D217808F0007908F100B030AD
:1003F000700787000A30F4000030F5002808F0008C
:100400002908F1005D21D030700788000A30F4001F
:100410000030F5002808F0002908F1005D21780877
:10042000F0007908F100E03070078800C129172A30
:02400E007A3FF7
:00000001FF
