:100000000428FF3FFF3FFF3F03138316860183123F
:100010008613061486100611861106160430FC009D
:10002000FF30FB00FF30FA00FC0B17281E28FB0BEB
:100030001A281D28FA0B1A28172814281030FB003C
:10004000FF30FA00FB0B25282828FA0B2528222848
:100050002630FA00FA0B2A28061286160430FC0015
:10006000FF30FB00FF30FA00FC0B37283E28FB0B6B
:100070003A283D28FA0B3A28372834281030FB005C
:10008000FF30FA00FB0B45284828FA0B4528422888
:100090002630FA00FA0B4A28861206170430FC00B4
:1000A000FF30FB00FF30FA00FC0B57285E28FB0BEB
:1000B0005A285D28FA0B5A28572854281030FB007C
:1000C000FF30FA00FB0B65286828FA0B65286228C8
:1000D0002630FA00FA0B6A28061386170430FC0053
:1000E000FF30FB00FF30FA00FC0B77287E28FB0B6B
:1000F0007A287D28FA0B7A28772874281030FB009C
:10010000FF30FA00FB0B85288828FA0B8528822807
:100110002630FA00FA0B8A288613861306108614F6
:100120000611861106160430FC00FF30FB00FF307C
:10013000FA00FC0B9C28A328FB0B9F28A228FA0B93
:100140009F289C2899281030FB00FF30FA00FB0BF9
:10015000AA28AD28FA0BAA28A7282630FA00FA0BFD
:10016000AF28061286160430FC00FF30FB00FF307B
:10017000FA00FC0BBC28C328FB0BBF28C228FA0BD3
:10018000BF28BC28B9281030FB00FF30FA00FB0B59
:10019000CA28CD28FA0BCA28C7282630FA00FA0B3D
:1001A000CF28861206170430FC00FF30FB00FF301A
:1001B000FA00FC0BDC28E328FB0BDF28E228FA0B13
:1001C000DF28DC28D9281030FB00FF30FA00FB0BB9
:1001D000EA28ED28FA0BEA28E7282630FA00FA0B7D
:1001E000EF28061386170430FC00FF30FB00FF30B9
:1001F000FA00FC0BFC280329FB0BFF280229FA0B51
:10020000FF28FC28F9281030FB00FF30FA00FB0B18
:100210000A290D29FA0B0A2907292630FA00FA0BB8
:100220000F298613861306108610061586110616EA
:100230000430FC00FF30FB00FF30FA00FC0B2129EA
:100240002829FB0B24292729FA0B242921291E29D7
:100250001030FB00FF30FA00FB0B2F293229FA0B7C
:100260002F292C292630FA00FA0B3429061286167B
:100270000430FC00FF30FB00FF30FA00FC0B41298A
:100280004829FB0B44294729FA0B442941293E29D7
:100290001030FB00FF30FA00FB0B4F295229FA0BFC
:1002A0004F294C292630FA00FA0B542986120617DA
:1002B0000430FC00FF30FB00FF30FA00FC0B61292A
:1002C0006829FB0B64296729FA0B642961295E29D7
:1002D0001030FB00FF30FA00FB0B6F297229FA0B7C
:1002E0006F296C292630FA00FA0B74290613861739
:1002F0000430FC00FF30FB00FF30FA00FC0B8129CA
:100300008829FB0B84298729FA0B842981297E29D6
:100310001030FB00FF30FA00FB0B8F299229FA0BFB
:100320008F298C292630FA00FA0B9429861386131C
:10033000061086100611861506160430FC00FF30E4
:10034000FB00FF30FA00FC0BA629AD29FB0BA92905
:10035000AC29FA0BA929A629A3291030FB00FF30EC
:10036000FA00FB0BB429B729FA0BB429B1292630BE
:10037000FA00FA0BB929061286160430FC00FF3089
:10038000FB00FF30FA00FC0BC629CD29FB0BC92965
:10039000CC29FA0BC929C629C3291030FB00FF302C
:1003A000FA00FB0BD429D729FA0BD429D1292630FE
:1003B000FA00FA0BD929861206170430FC00FF3028
:1003C000FB00FF30FA00FC0BE629ED29FB0BE929C5
:1003D000EC29FA0BE929E629E3291030FB00FF306C
:1003E000FA00FB0BF429F729FA0BF429F12926303E
:1003F000FA00FA0BF929061386170430FC00FF30C7
:10040000FB00FF30FA00FC0B062A0D2AFB0B092A21
:100410000C2AFA0B092A062A032A1030FB00FF30A7
:10042000FA00FB0B142A172AFA0B142A112A263079
:10043000FA00FA0B192A07281C2AFF3FFF3FFF3F4B
:02400E007A3FF7
:00000001FF
