:10000000192AFF3FFF3FFF3FFF00030E8301A900B6
:100010000408A8000A08AA008A017D08B6007C0826
:10002000B5007B08B4007A08B3007908B2007808FC
:10003000B1007508B0007408AF007308AE00720814
:10004000AD007108AC007008AB0000300B19013036
:10005000F2007208013A031D3C2800302106031DFE
:10006000332801302006031D3B28A20A0319A30AE6
:10007000A40A0319A50A0B1100308B180130F200F5
:100080007208013A031D13290B30FC00FF30FB00FE
:10009000FF30FA00FC0B4D285428FB0B5028532846
:1000A000FA0B50284D284A283330FB00FF30FA0065
:1000B000FB0B5B285E28FA0B5B2858288830FA0077
:1000C000FA0B60282008013FF20000300318013FBE
:1000D0002107F3007208A0007308A1000030730626
:1000E000031D742802307206031D7828A001A101A7
:1000F00000302106031D7E2801302006031D8B28B9
:10010000003086180130F2007208013A031D8B2876
:10011000A60A0319A70A6430F4000030F500240889
:10012000F0002508F1006221E0307007870064309C
:10013000F4000030F500BC2170082402F0007108C2
:10014000031C013F2502F1000A30F4000030F500E5
:100150006221D030700787000A30F4000030F500CB
:100160002408F0002508F10062217808F0007908E1
:10017000F100B030700787000A30F4000030F5005D
:100180002208F0002308F1006221E03070078800A7
:100190000A30F4000030F5002208F0002308F100D6
:1001A00062217808F0007908F100D03070078800EB
:1001B0000A30F4000030F5002608F0002708F100AE
:1001C0006221E030700785000A30F4000030F5004D
:1001D0002608F0002708F10062217808F00079086D
:1001E000F100D030700785000B30FC00FF30FB00C1
:1001F000FF30FA00FC0BFD280429FB0B0029032922
:10020000FA0B0029FD28FA283330FB00FF30FA00F2
:10021000FB0B0B290E29FA0B0B2908298830FA0051
:10022000FA0B10298B103608FD003508FC00340845
:10023000FB003308FA003208F9003108F8003008F2
:10024000F5002F08F4002E08F3002D08F2002C080A
:10025000F1002B08F0002A088A0028088400290EE3
:100260008300FF0E7F0E090003138312710DF80D3A
:10027000F90D7408F8027508031C750FF902F00DEA
:10028000F10D0F30FC00710DF80DF90D7408701CA4
:100290004F29F8027508031C750FF9025429F80755
:1002A00075080318750FF907F00DF10DFC0B4329C4
:1002B000701860297408F80775080318750FF90796
:1002C0000000080003138312FD01F901F801710811
:1002D00070040319003471087506FA00FA1BFD0951
:1002E000FB01F51F7829F409F509F40A0319F50A49
:1002F000F11F7F29F009F109F00A0319F10A7108C9
:100300007504FA00FA1B942934217B18A729FD1FD4
:100310000034F009F109F00A0319F10AF809F909A2
:10032000F80A0319F90A0034F51FA329F11B9F29C4
:100330007108F9007008F800F101F0018729F10156
:10034000F001F00A0034F109F009FB0A8429F80AE7
:100350000319F90A74087802031D872975087902C0
:10036000031D8729F901F801F00A0319F10AF11FA9
:1003700087290000FF34080003138312FB01FA01F0
:10038000F9018030F800FD01F11FCC29F109F009D5
:10039000F00A0319F10AFD0AF51FD429F509F40939
:1003A000F40A0319F50AFD0AF10CF00C031CE1290B
:1003B0007408F90775080318750FFA070318FB0A84
:1003C0000310F01FE9297408FA070318FB0A7508DF
:1003D000FB07FB0CFA0CF90CF80C031CD4297D1C50
:1003E000FC29FB09FA09F909F809F80A0319F90ABD
:1003F0000319FA0A0319FB0A7B08F3007A08F200D2
:100400007908F1007808F0000000080000300313BC
:100410008312A0000030A1000030A6000030A70029
:100420000F30A4000030A5000030A2000030A3006F
:100430000800062283168501F730860087018801AF
:10044000B0308B00803081006430F4000030F50063
:1004500083122408F0002508F1006221E0307007C3
:1004600087006430F4000030F500BC2170082402DD
:10047000F0007108031C013F2502F1000A30F4006E
:100480000030F5006221D030700787000A30F40098
:100490000030F5002408F0002508F10062217808FA
:1004A000F0007908F100B030700787000A30F400DE
:1004B0000030F5002208F0002308F1006221E0304E
:1004C000700788000A30F4000030F5002208F000C0
:1004D0002308F10062217808F0007908F100D0309B
:1004E000700788000A30F4000030F5002608F0009C
:1004F0002708F1006221E030700785000A30F4001F
:100500000030F5002608F0002708F1006221780885
:10051000F0007908F100D030700785000030210626
:10052000031D942A02302006031D982AA001A10170
:1005300000302106031D9E2A01302006031DAB2A30
:10054000003086180130F2007208013A031DAB2A10
:10055000A60A0319A70A00302106031DB12A01309B
:100560002006031DB42A0616B42AFF3FFF3FFF3FB3
:02400E007A3FF7
:00000001FF
